:03000000020C28C7
:0C0C2800787FE4F6D8FD758116020C6F91
:100D0E000A0800000000000000000000011280012F
:020D1E001300C0
:100AFD007F38120D217F0A7E00120CB87F0F120D68
:100B0D00217F0A7E00120CB8AF12120D21D296D29F
:100B1D0095D294C293C292C291C2903094F5309501
:100B2D00F23096EFD293D292D291C2903094063099
:100B3D009503209627E4F5142094090509AD097F46
:100B4D0001020C0B209509050AAD0A7F02020C0B60
:100B5D002096C0050BAD0B7F03020C0BD293D292E6
:100B6D00D290C291309406309503209625751401CC
:100B7D00209409050CAD0C7F04020C0B2095080583
:100B8D000DAD0D7F058077209689050EAD0E7F0684
:100B9D00806CD293D291D290C2923094063095034C
:100BAD00209627751402209408050FAD0F7F07803E
:100BBD004D2095080510AD107F0880423096030238
:100BCD000B200511AD117F098034D292D291D290B4
:100BDD00C293309409309506309603020B3175148B
:100BED00032094117F2A120D337F0A7E00120CB858
:100BFD000513020B2020950C0508AD08E4FF120823
:100C0D0000020B20309603020B207F23120D337F41
:0B0C1D000A7E00120CB80513020B2029
:100CDB000513E4FEEE6F600674082EF8E4F60EBE04
:0E0CEB000AF274082FF8E6B404041513E4F6B8
:010CF90022D8
:100CFA0074082FF8E6D3940140021513E512251360
:040D0A00FF020D21B6
:100800008F16ED24FE70030208B014700302095322
:10081000147003020A3724036003020AFCE516B4CD
:100820000A004003020AFC90082EF82828730208E8
:10083000A602084C02085602086002086A02087400
:1008400002087E02088802089202089C7F01120CAE
:10085000FA7F610209897F02120CFA7F6402099B08
:100860007F03120CFA7F670209AD7F04120CFA7F36
:100870006A0209BF7F05120CFA7F6D0209D17F065B
:10088000120CFA7F700209E37F07120CFA7F7302E1
:1008900009F57F08120CFA7F76020A077F09120C0D
:1008A000FA7F79020936E4FF120CFA7F2002094828
:1008B000E516B40A004003020AFC9008C1F8282893
:1008C000730209410208DF0208E90208F30208FD89
:1008D00002090702091102091B02092502092F7FDB
:1008E00001120CFA7F620209897F02120CFA7F65FD
:1008F00002099B7F03120CFA7F680209AD7F041284
:100900000CFA7F6B0209BF7F05120CFA7F6E020999
:10091000D17F06120CFA7F710209E37F07120CFAED
:100920007F740209F57F08120CFA7F77020A077FAD
:1009300009120CFA7F7A120D33120CB47F09020AE5
:10094000F9E4FF120CFA7F30120D33120CB4E4FFFD
:10095000020AF9E516B40A004003020AFC90096491
:10096000F8282873020A280209820209940209A6BB
:100970000209B80209CA0209DC0209EE020A0002F1
:100980000A127F01120CFA7F63120D33120CB47F2E
:1009900001020AF97F02120CFA7F66120D33120C63
:1009A000B47F02020AF97F03120CFA7F69120D3339
:1009B000120CB47F03020AF97F04120CFA7F6C1246
:1009C0000D33120CB47F04020AF97F05120CFA7F72
:1009D0006F120D33120CB47F05020AF97F06120C58
:1009E000FA7F72120D33120CB47F06020AF97F07E8
:1009F000120CFA7F75120D33120CB47F07020AF93C
:100A00007F08120CFA7F78120D33120CB47F0802A3
:100A10000AF97F09120CFA7F39120D33120CB47FD8
:100A200009120CDBE4F51122E4FF120CFA7F20120C
:100A30000D33E4FF020AF9E516B409004003020A87
:100A4000FC900A48F8282873020AED020A63020A99
:100A500075020A87020A98020AA9020ABA020ACB98
:100A6000020ADC7F01120CFA7F31120D33120CB432
:100A70007F01020AF97F02120CFA7F32120D331243
:100A80000CB47F02020AF97F03120CFA7F33120DB5
:100A900033120CB47F0380617F04120CFA7F34128E
:100AA0000D33120CB47F0480507F05120CFA7F3591
:100AB000120D33120CB47F05803F7F06120CFA7FB3
:100AC00036120D33120CB47F06802E7F07120CFAFB
:100AD0007F37120D33120CB47F07801D7F08120C74
:100AE000FA7F38120D33120CB47F08800CE4FF1229
:0D0AF0000CFA7F30120D33E4FF120CDB22F4
:100D21008FA0C2B2C2B3D2B47F017E00120CB8C28E
:020D3100B422EA
:100D33008FA0D2B2C2B3D2B47F017E00120CB8C26C
:020D4300B422D8
:040CB4007F047E003B
:100CB800E4FDFCEFFBC3ED9BEC94005015E4FBFA5C
:100CC8000BBB00010ABA04F8BBFBF50DBD00010C13
:020CD80080E1B9
:010CDA0022F7
:100C3400020AFDE493A3F8E493A34003F68001F2CF
:100C440008DFF48029E493A3F85407240CC8C333C1
:100C5400C4540F4420C8834004F456800146F6DF90
:100C6400E4800B0102040810204080900D0EE47E05
:100C7400019360BCA3FF543F30E509541FFEE49385
:100C8400A360010ECF54C025E060A840B8E493A34C
:100C9400FAE493A3F8E493A3C8C582C8CAC583CA77
:100CA400F0A3C8C582C8CAC583CADFE9DEE780BE2F
:010D200000D2
:00000001FF
